S01E000074656D70657261747572655F636F6E74726F6C6C65722E73726563B5
S11300000C942A000C943F000C943F000C943F0085
S11300100C943F000C943F000C943F000C943F0060
S11300200C943F000C943F000C943F000C943F0050
S11300300C943F000C943F000C943F000C943F0040
S11300400C943F000C943F000C943F000C943F0030
S11300500C943F0011241FBECFE5D8E0DEBFCDBF16
S113006010E0A0E6B0E0ECEEF6E002C005900D92E0
S1130070AC37B107D9F70E9417010C9474030C94A0
S113008000003E9A87E886B9089597B1892B87B90D
S1130090369A349BFECF349A24B135B1932F80E045
S11300A0AC01422B9A01822F932F0895C39A82E0C8
S11300B08A95F1F700C0C3988FE097E20197F1F7B2
S11300C000C000000895CF93C82F8BB39C2F907F5E
S11300D08F70892B8BBB0E9456008FE097E20197AB
S11300E0F1F700C000002BB330E1C39FC00111241D
S11300F0922F9F70892B8BBB0E9456008FE097E252
S11301000197F1F700C00000CF910895C298C198FB
S11301100E9463000895C298C19A0E9463000895E2
S1130120CF93DF93EC018881882331F021960E94DC
S11301308B0089918111FBCFDF91CF91089561509C
S1130140823071F018F48130C9F405C0833069F04D
S11301508430A1F40FC0862F80580E948600089531
S1130160862F80540E9486000895862F8C560E9404
S113017086000895862F8C520E94860008958AB3C3
S1130180806F8ABB8BB38F708BBB8EE087BB88B3C9
S1130190817F88BB80E884BF84BF8FE19EE40197A0
S11301A0F1F700C00000C298C198DC9ADD9A0E9461
S11301B056000E9456000E945600DC980E94560089
S11301C088E20E9486008FE00E94860080EF0E94F1
S11301D0860081E00E94860086E00E9486000895E1
S11301E0A49AAC9AA59AAD9A08958CE00E948600D0
S11301F061E081E00E949F0080E690E00E94900010
S113020087E690E00E9490008EE690E00E949000C5
S113021065E082E00E949F008CE70E948B006BE007
S113022082E00E949F008CE70E948B0008950E9448
S1130230F0000E94BF000E9441000E94F500C8EE39
S1130240D3E00F2EF4E6BF2EF02D62E082E00E9490
S11302509F000E94C8010E944B028B019B013695AE
S113026027953695279536952795A5ECB0E20E94FB
S113027068037C01F694E794F694E794F694E79483
S1130280F694E794EC9EC001ED9E900DFC9E900DBB
S113029011247801E81AF90A9701369527953695BD
S11302A02795ABE7B4E10E9468036C01D694C79428
S11302B08C2D805D0E948B00BC9CC001BD9C900D68
S11302C01124E81AF90A9701ADECBCEC0E9468030A
S11302D06C01D694C794D694C794D694C7948C2DA5
S11302E0805D0E948B00C601880F991FCC0CDD1C19
S11302F0CC0CDD1CCC0CDD1CC80ED91EC7018C191E
S11303009D09805D0E948B00C8014197049798F471
S1130310AC9AAD9A67E082E00E949F0083E790E088
S11303200E9490006DE082E00E949F0083E790E0CD
S11303300E9490008ACF0531110598F0AC98AD9ACF
S113034067E082E00E949F0087E790E00E949000AF
S11303506DE082E00E949F0083E790E00E9490009D
S113036074CF0431110508F070CFAC98AD9867E0F4
S113037082E00E949F0087E790E00E9490006DE079
S113038082E00E949F0087E790E00E9490005DCF8A
S113039080E00E944500BC0180E090E00E9477026A
S11303A02AE939E949E950E40E94050320E030E0F4
S11303B040E251E40E94E3010E944B0280E090E09D
S11303C00E94770208950CD0E6C0DED040F0D5D06C
S11303D030F021F45F3F19F0C7C0511110C1CAC0F9
S11303E0EBD098F39923C9F35523B1F3951B550B1F
S11303F0BB27AA2762177307840738F09F5F5F4FF4
S1130400220F331F441FAA1FA9F333D00E2E3AF034
S1130410E0E830D091505040E695001CCAF729D04E
S1130420FE2F27D0660F771F881FBB1F261737079D
S11304304807AB07B0E809F0BB0B802DBF01FF27CD
S113044093585F4F2AF09E3F510568F08DC0D7C086
S11304505F3FECF3983EDCF3869577956795B79507
S1130460F7959F5FC9F7880F911D9695879597F922
S11304700895E1E0660F771F881FBB1F621773079B
S11304808407BA0720F0621B730B840BBA0BEE1FB0
S113049088F7E095089598D088F09F5790F0B92F89
S11304A09927B751A0F0D1F0660F771F881F991FC5
S11304B01AF0BA95C9F712C0B13081F09FD0B1E0FB
S11304C008959CC0672F782F8827B85F39F0B93F0B
S11304D0CCF3869577956795B395D9F73EF49095C7
S11304E08095709561957F4F8F4F9F4F0895E89445
S11304F009C097FB3EF490958095709561957F4F68
S11305008F4F9F4F9923A9F0F92F96E9BB27939515
S1130510F695879577956795B795F111F8CFFAF425
S1130520BB0F11F460FF1BC06F5F7F4F8F4F9F4F56
S113053016C0882311F096E911C0772321F09EE8B4
S1130540872F762F05C0662371F096E8862F70E01A
S113055060E02AF09A95660F771F881FDAF7880FF4
S11305609695879597F9089597F99F6780E870E0C5
S113057060E008959FEF80EC089500240A94161615
S1130580170618060906089500240A94121613067D
S1130590140605060895092E0394000C11F488230B
S11305A052F0BB0F40F4BF2B11F460FF04C06F5F27
S11305B07F4F8F4F9F4F089557FD9058440F551FFD
S11305C059F05F3F71F04795880F97FB991F61F0D1
S11305D09F3F79F087950895121613061406551F48
S11305E0F2CF4695F1DF08C0161617061806991FB4
S11305F0F1CF86957105610508940895E894BB27A9
S113060066277727CB0197F908950BD0C4CFB5DFC0
S113061028F0BADF18F0952309F0A6CFABCF112448
S1130620EECFCADFA0F3959FD1F3950F50E0551F8D
S1130630629FF001729FBB27F00DB11D639FAA2733
S1130640F00DB11DAA1F649F6627B00DA11D661F82
S1130650829F2227B00DA11D621F739FB00DA11DA3
S1130660621F839FA00D611D221F749F3327A00D5D
S1130670611D231F849F600D211D822F762F6A2FF9
S113068011249F5750408AF0E1F088234AF0EE0F7E
S1130690FF1FBB1F661F771F881F91505040A9F78B
S11306A09E3F510570F060CFAACF5F3FECF3983EB8
S11306B0DCF3869577956795B795F795E7959F5FF2
S11306C0C1F7FE2B880F911D9695879597F908958C
S11306D0A29FB001B39FC001A39F01D0B29F700D30
S10F06E0811D1124911D0895F894FFCF92
S11306EC54656D707C200046616E207C200048654A
S10F06FC6174004F4646004F4E20000081
S9030000FC
